{
  "contractName": "transfer_system",
  "abi": [
    {
      "constant": false,
      "inputs": [
        {
          "name": "name",
          "type": "string"
        }
      ],
      "name": "addSeller",
      "outputs": [],
      "payable": false,
      "stateMutability": "nonpayable",
      "type": "function"
    },
    {
      "constant": false,
      "inputs": [
        {
          "name": "_productId",
          "type": "uint256"
        },
        {
          "name": "_items",
          "type": "uint256"
        }
      ],
      "name": "cart",
      "outputs": [],
      "payable": false,
      "stateMutability": "nonpayable",
      "type": "function"
    },
    {
      "constant": false,
      "inputs": [
        {
          "name": "_amount",
          "type": "uint256"
        }
      ],
      "name": "usepoint",
      "outputs": [],
      "payable": false,
      "stateMutability": "nonpayable",
      "type": "function"
    },
    {
      "constant": true,
      "inputs": [
        {
          "name": "",
          "type": "uint256"
        }
      ],
      "name": "products",
      "outputs": [
        {
          "name": "name",
          "type": "string"
        },
        {
          "name": "stock",
          "type": "uint256"
        },
        {
          "name": "price",
          "type": "uint256"
        },
        {
          "name": "items",
          "type": "uint256"
        }
      ],
      "payable": false,
      "stateMutability": "view",
      "type": "function"
    },
    {
      "constant": false,
      "inputs": [],
      "name": "acceptPayment",
      "outputs": [
        {
          "name": "",
          "type": "bool"
        }
      ],
      "payable": true,
      "stateMutability": "payable",
      "type": "function"
    },
    {
      "constant": true,
      "inputs": [
        {
          "name": "",
          "type": "uint256"
        }
      ],
      "name": "sellers",
      "outputs": [
        {
          "name": "name",
          "type": "string"
        },
        {
          "name": "sellerAddress",
          "type": "address"
        },
        {
          "name": "good",
          "type": "uint256"
        },
        {
          "name": "bad",
          "type": "uint256"
        }
      ],
      "payable": false,
      "stateMutability": "view",
      "type": "function"
    },
    {
      "constant": false,
      "inputs": [
        {
          "name": "_productName",
          "type": "string"
        },
        {
          "name": "_price",
          "type": "uint256"
        },
        {
          "name": "_stock",
          "type": "uint256"
        }
      ],
      "name": "addItem",
      "outputs": [],
      "payable": false,
      "stateMutability": "nonpayable",
      "type": "function"
    },
    {
      "constant": true,
      "inputs": [],
      "name": "cartView",
      "outputs": [
        {
          "components": [
            {
              "name": "name",
              "type": "string"
            },
            {
              "name": "stock",
              "type": "uint256"
            },
            {
              "name": "price",
              "type": "uint256"
            },
            {
              "name": "items",
              "type": "uint256"
            }
          ],
          "name": "",
          "type": "tuple[]"
        }
      ],
      "payable": false,
      "stateMutability": "view",
      "type": "function"
    }
  ],
  "bytecode": "0x6080604052601460085534801561001557600080fd5b5061191e806100256000396000f3fe60806040526004361061007b5760003560e01c8063ae0aba8c1161004e578063ae0aba8c1461013b578063cee26ed514610159578063d5e6c33314610199578063e8d944be146101c25761007b565b8063245349d31461008057806348346292146100a957806369cb73bc146100d25780637acc0b20146100fb575b600080fd5b34801561008c57600080fd5b506100a760048036036100a29190810190611397565b6101ed565b005b3480156100b557600080fd5b506100d060048036036100cb9190810190611471565b610409565b005b3480156100de57600080fd5b506100f960048036036100f49190810190611448565b610656565b005b34801561010757600080fd5b50610122600480360361011d9190810190611448565b61073f565b6040516101329493929190611775565b60405180910390f35b610143610814565b604051610150919061170e565b60405180910390f35b34801561016557600080fd5b50610180600480360361017b9190810190611448565b610985565b6040516101909493929190611729565b60405180910390f35b3480156101a557600080fd5b506101c060048036036101bb91908101906113dc565b610a7a565b005b3480156101ce57600080fd5b506101d7610cf7565b6040516101e491906116ec565b60405180910390f35b33600080905060008090505b6007805490508112156102b1573373ffffffffffffffffffffffffffffffffffffffff166007828154811061022a57fe5b906000526020600020906004020160010160009054906101000a900473ffffffffffffffffffffffffffffffffffffffff1673ffffffffffffffffffffffffffffffffffffffff161415610280578091506102a4565b7fffffffffffffffffffffffffffffffffffffffffffffffffffffffffffffffff91505b80806001019150506101f9565b507fffffffffffffffffffffffffffffffffffffffffffffffffffffffffffffffff81146102de57600080fd5b6007604051806080016040528086868080601f016020809104026020016040519081016040528093929190818152602001838380828437600081840152601f19601f8201169050808301925050505050505081526020013373ffffffffffffffffffffffffffffffffffffffff1681526020016000815260200160008152509080600181540180825580915050906001820390600052602060002090600402016000909192909190915060008201518160000190805190602001906103a4929190611243565b5060208201518160010160006101000a81548173ffffffffffffffffffffffffffffffffffffffff021916908373ffffffffffffffffffffffffffffffffffffffff160217905550604082015181600201556060820151816003015550505050505050565b8181806006838154811061041957fe5b906000526020600020906004020160010154101561043657600080fd5b61043e6112c3565b60405180608001604052806006878154811061045657fe5b90600052602060002090600402016000018054600181600116156101000203166002900480601f0160208091040260200160405190810160405280929190818152602001828054600181600116156101000203166002900480156104fb5780601f106104d0576101008083540402835291602001916104fb565b820191906000526020600020905b8154815290600101906020018083116104de57829003601f168201915b505050505081526020016006878154811061051257fe5b90600052602060002090600402016001015481526020016006878154811061053657fe5b9060005260206000209060040201600201548152602001858152509050600460003373ffffffffffffffffffffffffffffffffffffffff1673ffffffffffffffffffffffffffffffffffffffff168152602001908152602001600020819080600181540180825580915050906001820390600052602060002090600402016000909192909190915060008201518160000190805190602001906105da929190611243565b5060208201518160010155604082015181600201556060820151816003015550505083816040015102600560003373ffffffffffffffffffffffffffffffffffffffff1673ffffffffffffffffffffffffffffffffffffffff168152602001908152602001600020600082825401925050819055505050505050565b80600360003373ffffffffffffffffffffffffffffffffffffffff1673ffffffffffffffffffffffffffffffffffffffff1681526020019081526020016000205410156106a257600080fd5b80600560003373ffffffffffffffffffffffffffffffffffffffff1673ffffffffffffffffffffffffffffffffffffffff1681526020019081526020016000206000828254039250508190555080600360003373ffffffffffffffffffffffffffffffffffffffff1673ffffffffffffffffffffffffffffffffffffffff1681526020019081526020016000206000828254039250508190555050565b6006818154811061074c57fe5b9060005260206000209060040201600091509050806000018054600181600116156101000203166002900480601f0160208091040260200160405190810160405280929190818152602001828054600181600116156101000203166002900480156107f85780601f106107cd576101008083540402835291602001916107f8565b820191906000526020600020905b8154815290600101906020018083116107db57829003601f168201915b5050505050908060010154908060020154908060030154905084565b600034600560003373ffffffffffffffffffffffffffffffffffffffff1673ffffffffffffffffffffffffffffffffffffffff16815260200190815260200160002054111561086257600080fd5b61086b33610fab565b6108b3600560003373ffffffffffffffffffffffffffffffffffffffff1673ffffffffffffffffffffffffffffffffffffffff168152602001908152602001600020546111ef565b6000600560003373ffffffffffffffffffffffffffffffffffffffff1673ffffffffffffffffffffffffffffffffffffffff16815260200190815260200160002081905550600460003373ffffffffffffffffffffffffffffffffffffffff1673ffffffffffffffffffffffffffffffffffffffff16815260200190815260200160002080549050600160003373ffffffffffffffffffffffffffffffffffffffff1673ffffffffffffffffffffffffffffffffffffffff168152602001908152602001600020819055506001905090565b6007818154811061099257fe5b9060005260206000209060040201600091509050806000018054600181600116156101000203166002900480601f016020809104026020016040519081016040528092919081815260200182805460018160011615610100020316600290048015610a3e5780601f10610a1357610100808354040283529160200191610a3e565b820191906000526020600020905b815481529060010190602001808311610a2157829003601f168201915b5050505050908060010160009054906101000a900473ffffffffffffffffffffffffffffffffffffffff16908060020154908060030154905084565b33600080905060008090505b600780549050811215610b3e573373ffffffffffffffffffffffffffffffffffffffff1660078281548110610ab757fe5b906000526020600020906004020160010160009054906101000a900473ffffffffffffffffffffffffffffffffffffffff1673ffffffffffffffffffffffffffffffffffffffff161415610b0d57809150610b31565b7fffffffffffffffffffffffffffffffffffffffffffffffffffffffffffffffff91505b8080600101915050610a86565b507fffffffffffffffffffffffffffffffffffffffffffffffffffffffffffffffff811415610b6c57600080fd5b60006001600660405180608001604052808a8a8080601f016020809104026020016040519081016040528093929190818152602001838380828437600081840152601f19601f8201169050808301925050505050505081526020018781526020018881526020016000815250908060018154018082558091505090600182039060005260206000209060040201600090919290919091506000820151816000019080519060200190610c1f929190611243565b50602082015181600101556040820151816002015560608201518160030155505003905060008090505b600780549050811015610ced573373ffffffffffffffffffffffffffffffffffffffff1660078281548110610c7a57fe5b906000526020600020906004020160010160009054906101000a900473ffffffffffffffffffffffffffffffffffffffff1673ffffffffffffffffffffffffffffffffffffffff161415610ce05780600080848152602001908152602001600020819055505b8080600101915050610c49565b5050505050505050565b6060806064604051908082528060200260200182016040528015610d3557816020015b610d226112eb565b815260200190600190039081610d1a5790505b50905060008090506000600160003373ffffffffffffffffffffffffffffffffffffffff1673ffffffffffffffffffffffffffffffffffffffff1681526020019081526020016000205490505b600460003373ffffffffffffffffffffffffffffffffffffffff1673ffffffffffffffffffffffffffffffffffffffff16815260200190815260200160002080549050811015610f1b57600460003373ffffffffffffffffffffffffffffffffffffffff1673ffffffffffffffffffffffffffffffffffffffff1681526020019081526020016000208181548110610e1657fe5b9060005260206000209060040201604051806080016040529081600082018054600181600116156101000203166002900480601f016020809104026020016040519081016040528092919081815260200182805460018160011615610100020316600290048015610ec85780601f10610e9d57610100808354040283529160200191610ec8565b820191906000526020600020905b815481529060010190602001808311610eab57829003601f168201915b505050505081526020016001820154815260200160028201548152602001600382015481525050838381518110610efb57fe5b602002602001018190525081806001019250508080600101915050610d82565b50606081604051908082528060200260200182016040528015610f5857816020015b610f456112eb565b815260200190600190039081610f3d5790505b50905060008090505b82811015610fa157838181518110610f7557fe5b6020026020010151828281518110610f8957fe5b60200260200101819052508080600101915050610f61565b5080935050505090565b60008090505b600460008373ffffffffffffffffffffffffffffffffffffffff1673ffffffffffffffffffffffffffffffffffffffff168152602001908152602001600020805490508110156111eb576000600460008473ffffffffffffffffffffffffffffffffffffffff1673ffffffffffffffffffffffffffffffffffffffff168152602001908152602001600020828154811061104757fe5b906000526020600020906004020160030154905080600460008573ffffffffffffffffffffffffffffffffffffffff1673ffffffffffffffffffffffffffffffffffffffff16815260200190815260200160002083815481106110a657fe5b90600052602060002090600402016001016000828254039250508190555060008090505b6006805490508310156111dc57600460008573ffffffffffffffffffffffffffffffffffffffff1673ffffffffffffffffffffffffffffffffffffffff168152602001908152602001600020838154811061112157fe5b906000526020600020906004020160000160405160200161114291906116d5565b604051602081830303815290604052805190602001206006828154811061116557fe5b906000526020600020906004020160000160405160200161118691906116d5565b6040516020818303038152906040528051906020012014156111cf5781600682815481106111b057fe5b9060005260206000209060040201600101600082825403925050819055505b82806001019350506110ca565b50508080600101915050610fb1565b5050565b6008548102600360003373ffffffffffffffffffffffffffffffffffffffff1673ffffffffffffffffffffffffffffffffffffffff1681526020019081526020016000206000828254019250508190555050565b828054600181600116156101000203166002900490600052602060002090601f016020900481019282601f1061128457805160ff19168380011785556112b2565b828001600101855582156112b2579182015b828111156112b1578251825591602001919060010190611296565b5b5090506112bf9190611313565b5090565b6040518060800160405280606081526020016000815260200160008152602001600081525090565b6040518060800160405280606081526020016000815260200160008152602001600081525090565b61133591905b80821115611331576000816000905550600101611319565b5090565b90565b60008083601f84011261134a57600080fd5b8235905067ffffffffffffffff81111561136357600080fd5b60208301915083600182028301111561137b57600080fd5b9250929050565b600081359050611391816118cd565b92915050565b600080602083850312156113aa57600080fd5b600083013567ffffffffffffffff8111156113c457600080fd5b6113d085828601611338565b92509250509250929050565b600080600080606085870312156113f257600080fd5b600085013567ffffffffffffffff81111561140c57600080fd5b61141887828801611338565b9450945050602061142b87828801611382565b925050604061143c87828801611382565b91505092959194509250565b60006020828403121561145a57600080fd5b600061146884828501611382565b91505092915050565b6000806040838503121561148457600080fd5b600061149285828601611382565b92505060206114a385828601611382565b9150509250929050565b60006114b98383611654565b905092915050565b6114ca81611841565b82525050565b60006114db826117e0565b6114e58185611803565b9350836020820285016114f7856117c1565b8060005b85811015611533578484038952815161151485826114ad565b945061151f836117f6565b925060208a019950506001810190506114fb565b50829750879550505050505092915050565b61154e81611853565b82525050565b600061155f826117eb565b6115698185611814565b9350611579818560208601611889565b611582816118bc565b840191505092915050565b6000611598826117eb565b6115a28185611825565b93506115b2818560208601611889565b6115bb816118bc565b840191505092915050565b6000815460018116600081146115e357600181146116085761164c565b607f60028304166115f48187611836565b955060ff198316865280860193505061164c565b600282046116168187611836565b9550611621856117ce565b60005b8281101561164357815481890152600182019150602081019050611624565b82880195505050505b505092915050565b600060808301600083015184820360008601526116718282611554565b915050602083015161168660208601826116b7565b50604083015161169960408601826116b7565b5060608301516116ac60608601826116b7565b508091505092915050565b6116c08161187f565b82525050565b6116cf8161187f565b82525050565b60006116e182846115c6565b915081905092915050565b6000602082019050818103600083015261170681846114d0565b905092915050565b60006020820190506117236000830184611545565b92915050565b60006080820190508181036000830152611743818761158d565b905061175260208301866114c1565b61175f60408301856116c6565b61176c60608301846116c6565b95945050505050565b6000608082019050818103600083015261178f818761158d565b905061179e60208301866116c6565b6117ab60408301856116c6565b6117b860608301846116c6565b95945050505050565b6000602082019050919050565b60008160005260206000209050919050565b600081519050919050565b600081519050919050565b6000602082019050919050565b600082825260208201905092915050565b600082825260208201905092915050565b600082825260208201905092915050565b600081905092915050565b600061184c8261185f565b9050919050565b60008115159050919050565b600073ffffffffffffffffffffffffffffffffffffffff82169050919050565b6000819050919050565b60005b838110156118a757808201518184015260208101905061188c565b838111156118b6576000848401525b50505050565b6000601f19601f8301169050919050565b6118d68161187f565b81146118e157600080fd5b5056fea265627a7a7230582099d1916d17f5f270f1dd6962dd0eb6f67056e128450082eab17ed6db1bbae58d6c6578706572696d656e74616cf50037",
  "source": "pragma solidity ^0.5.0;\npragma experimental ABIEncoderV2;\nimport \"./point_system.sol\";\n\ncontract transfer_system is point_system{\n}",
  "sourcePath": "/home/miraidai/point_system/contracts/transfer_system.sol",
  "compiler": {
    "name": "solc",
    "version": "0.5.8+commit.23d335f2.Emscripten.clang"
  },
  "schemaVersion": "3.0.11",
  "updatedAt": "2019-09-04T01:03:26.975Z",
  "devdoc": {
    "methods": {}
  },
  "userdoc": {
    "methods": {}
  }
}